:020000040000fa
:020000040040ba
:10000000f0ff4520c50240001505400015054000e1
:1000100015054000150540001505400000000000d2
:100020000000000000000000000000001505400076
:1000300015054000000000001505400015054000b2
:100040001505400015054000150540001505400048
:100050001505400015054000150540001505400038
:100060001505400000000000150540001505400082
:100070001505400015054000150540001505400018
:100080001505400015054000150540001505400008
:1000900015054000150540001505400015054000f8
:1000a00015054000150540001505400015054000e8
:1000b00015054000150540001505400015054000d8
:1000c00015054000150540001505400015054000c8
:1000d00015054000150540001505400015054000b8
:1000e00015054000150540001505400015054000a8
:1000f0001505400015054000150540001505400098
:100100001505400015054000150540001505400087
:100110001505400000000000000000000000000085
:100120001505400015054000150540001505400067
:100130001505400015054000150540001505400057
:1001400000000000000000001505400015054000fb
:040150001505400051
:020000040000fa
:020000040040ba
:10015400f8b500bff8bc08bc9e467047b90440001f
:10016400f8b500bff8bc08bc9e4670479504400033
:020000040000fa
:020000040040ba
:1001740080b400afbff34f8fbff36f8f0b4b0022e0
:10018400c3f85022bff34f8fbff36f8f074a074b5b
:100194005b6943f400335361bff34f8fbff36f8f39
:1001a40000bfbd465df8047b704700bf00ed00e072
:1001b40080b485b000af1d4b0022c3f88420bff388
:1001c4004f8f1a4bd3f880307b607b685b0bc3f393
:1001d4000e03fb607b68db08c3f30903bb601349b0
:1001e400fb685a0143f6e0731340ba68920713435d
:1001f400c1f86032bb685a1eba60002befd1fb68ad
:100204005a1efa60002be5d1bff34f8f074a074b04
:100214005b6943f480335361bff34f8fbff36f8f38
:1002240000bf1437bd465df8047b704700ed00e065
:100234001b4a1c4b5a601a46936813f0010ffbd0fb
:10024400184bdb68184a136013f4c07f12d0174aa6
:10025400144b5a601a46936813f0010ffbd0144aea
:10026400104b5a601a46936813f0010ffbd0114ae1
:10027400114b1a60bff34f8fbff36f8f0f4bd3f83f
:10028400902222f00102c3f89022d3f8942222f0a3
:100294000102c3f89422bff34f8fbff36f8f7047ef
:1002a4000d00005a000c0e40200040200c08005a9b
:1002b4000c07005a010000a500180e4000ed00e0f4
:020000040000fa
:020000040040ba
:1002c4001d4b03b198471d4b03b19847eff31083bf
:1002d400b3fa83f35b09019372b6bff35f8f002215
:1002e400174b1a700199174a136843f4700313608b
:1002f400bff34f8fbff36f8f29b10122104b1a70d8
:10030400bff35f8f62b6fff733fffff751fffff7cd
:100314008fff00f023f80c4a0c4b23f07f0393600b
:100324000b4b98470b4b03b198470b4b03b19847c2
:1003340000f054f8fee700bf0000000000000000d9
:100344001c00402088ed00e000ed00e000004000cb
:0c0354004d04400000000000000000000c
:020000040000fa
:020000040040ba
:100360001c4b1d4a934230b438bf002103d203f81e
:10037000011b9342fbd1194800250168c1b94268ad
:1003800032b383680c30d3b10139034613f8014b03
:1003900001f8014f1c1a9442f8d312f0030318bf5e
:1003a000012303eb920200eb820001680029e6d0f2
:1003b000846842680b460c303cb9002addd01a44f0
:1003c00003f8015b9a42fbd1d7e7002adcd1e4e7ce
:1003d00030bc70470000402000004020d4044000a2
:020000040000fa
:020000040040ba
:1003e00080b586b000af786039600c23fb600f23c6
:1003f000bb6000237b61b968f86800f015f878618c
:100400007b695b007b6100233b6105e07b69013315
:100410007b613b6901333b613b69092bf6dd0023be
:1004200018461837bd4680bd80b485b000af7860ef
:1004300039600023fb607a683b681344fb60fb680b
:0c04400018461437bd465df8047b704779
:020000040000fa
:020000040040ba
:10044c0070b50d4e0d4ca41ba4100025a54209d16e
:10045c000b4e0c4cfff778fea41ba4100025a542f4
:10046c0005d170bd56f8253098470135eee756f8a2
:10047c00253098470135f2e76001400060014000eb
:08048c00600140006401400022
:020000040000fa
:020000040040ba
:1004940010b5054c227832b9044b13b10448aff3bc
:1004a40000800123237010bd0000402000000000e4
:1004b4000000000008b5034b1bb103490348aff328
:1004c400008008bd0000000004004020000000007f
:020000040000fa
:020000040040ba
:1004d400240040200400000001000000000000008f
:1004e400000040201c000000000000001c00402010
:1004f4000800000000000000280040200400000064
:1005040001000000000000000000000000000000e6
:020000040000fa
:020000040040ba
:02051400fee700
:00000001FF
